S01200006D61737465725F6361722E73726563F1
S11300000C942A000C9447000C9447000C94220191
S11300100C9447000C9447000C94E4000C944700A3
S11300200C9447000C9447000C9447000C94730103
S11300300C9447000C9447000C9447000C94470020
S11300400C9447000C9447000C9447000C94470010
S11300500C94470011241FBECFE5D4E0DEBFCDBF12
S113006010E0A0E6B0E0EEE3F3E002C005900D92EC
S1130070A036B107D9F720E0A0E6B0E001C01D9298
S1130080AA36B207E1F70E9449000C949D010C9432
S113009000000E946B0161E080EA0E9459008FB762
S11300A080688FBF61E087ED0E9459000E940D01B6
S11300B0FFCF982F9F70807F662309F442C0613080
S11300C009F081C0803BB1F018F4803A31F0089512
S11300D0803CE9F0803D41F108954AB321E030E0ED
S11300E0B90102C0660F771F9A95E2F7CB01842B02
S11300F08ABB089547B321E030E0B90102C0660F1E
S1130100771F9A95E2F7CB01842B87BB089544B3FC
S113011021E030E0B90102C0660F771F9A95E2F73B
S1130120CB01842B84BB089541B321E030E0B901B5
S113013002C0660F771F9A95E2F7CB01842B81BB2F
S11301400895803BB9F018F4803A31F00895803C6A
S1130150F9F0803D59F108954AB321E030E0B90146
S113016002C0660F771F9A95E2F7CB01809584232E
S11301708ABB089547B321E030E0B90102C0660F9D
S1130180771F9A95E2F7CB018095842387BB089566
S113019044B321E030E0B90102C0660F771F9A959D
S11301A0E2F7CB018095842384BB089541B321E019
S11301B030E0B90102C0660F771F9A95E2F7CB01D0
S11301C08095842381BB08951F920F920FB60F92DE
S11301D011242F933F934F935F936F937F938F9348
S11301E09F93AF93BF93EF93FF93E0916000F091DF
S11301F06100309709F00995FF91EF91BF91AF919C
S11302009F918F917F916F915F914F913F912F912A
S11302100F900FBE0F901F90189585B5806485BD13
S113022085B5877F85BD85B58F7C806185BD14BC10
S11302308AE183BD85B5887F826085BD89B7806882
S113024089BF08951F920F920FB60F9211242F9316
S11302503F934F935F936F937F938F939F93AF934A
S1130260BF93EF93FF938091620090916300A091FC
S11302706400B09165000196A11DB11D80936200D8
S113028090936300A0936400B09365000197A10567
S1130290B10581F410926200109263001092640020
S11302A01092650014BCE0916600F09167003097ED
S11302B009F00995FF91EF91BF91AF919F918F91B3
S11302C07F916F915F914F913F912F910F900FBE4E
S11302D00F901F90189510BC87E689B988E18AB9F8
S11302E086E080BD08951F920F920FB60F921124DD
S11302F02F933F934F935F936F937F938F939F932A
S1130300AF93BF93EF93FF93E0916800F09169007E
S1130310309711F08CB10995FF91EF91BF91AF9196
S11303209F918F917F916F915F914F913F912F9109
S11103300F900FBE0F901F901895F894FFCFFA
S9030000FC
