S01200006D61737465725F6361722E73726563F1
S11300000C942A000C9447000C9447000C94790338
S11300100C9447000C9447000C9450030C94470034
S11300200C9447000C9447000C94F8020C94DA03E7
S11300300C9447000C9447000C9447000C94470020
S11300400C9447000C9447000C9447000C94470010
S11300500C94470011241FBECFE5D4E0DEBFCDBF12
S113006010E0A0E6B0E0E0E6FAE002C005900D92F0
S1130070A436B107D9F720E0A4E6B0E001C01D9290
S1130080A037B207E1F70E9442010C942E050C94AC
S1130090000080916100813009F440C020F082307A
S11300A009F477C0089580916000813021F0A0F0B8
S11300B0823019F1089560E080EC0E94410260E012
S11300C081EC0E94410260E084ED0E94410261E003
S11300D085ED0E944102089560E080EC0E94410297
S11300E061E081EC0E94410260E084ED0E944102E3
S11300F060E085ED0E944102089560E080EC0E947A
S1130100410261E081EC0E94410260E084ED0E94C2
S1130110410261E085ED0E944102089580916000F2
S11301208130A9F018F0823019F1089560E080EC74
S11301300E94410260E081EC0E94410261E084ED92
S11301400E94410260E085ED0E944102089561E051
S113015080EC0E94410260E081EC0E94410260E078
S113016084ED0E94410260E085ED0E944102089501
S113017061E080EC0E94410260E081EC0E94410257
S113018061E084ED0E94410260E085ED0E9441023D
S1130190089560E080EC0E94410260E081EC0E94DE
S11301A0410260E084ED0E94410260E085ED0E941E
S11301B04102089561E080EC0E94B60161E081ECA7
S11301C00E94B60161E084ED0E94B60161E085ED14
S11301D00E94B60160E080EC0E94410260E081EC84
S11301E00E94410260E084ED0E94410260E085EDDE
S11301F00E9441020895809361000E94490008957D
S1130200809360000E9449000895CF93DF9300D04B
S1130210CDB7DEB7863411F0863619F41092630038
S113022026C0823411F0823621F491E09093630069
S11302301EC0833511F0833721F492E0909363005C
S113024016C0823511F0823719F4109262000FC083
S11302508C3411F08C3621F491E09093620007C045
S11302608E3411F08E3619F492E0909362008983F3
S11302701A82CE0101960E94CA030F900F90DF915B
S1130280CF9108950E94DA000E9426030E94CC02B6
S11302900E94D0020E94C2038EE10E94400385E0C6
S11302A091E00E94F30261E080EA0E94B60161E0FD
S11302B081EA0E94B60161E082EA0E94B60161E02F
S11302C083EA0E94B60161E080EA0E94410261E093
S11302D081EA0E94410261E082EA0E94410261E0F7
S11302E083EA0E9441022FEF83ED90E32150804086
S11302F09040E1F700C00000809163000E94FB0081
S1130300809162000E94000161E08091630081118C
S113031060E080EA0E94410261E0809163008130E4
S113032009F060E081EA0E9441028091620081113B
S113033006C080916300823021F460E003C060E075
S113034001C061E082EA0E94410280916200813032
S113035031F480916300823021F460E003C060E0F6
S113036001C061E083EA0E944102C6CF982F9F70CA
S1130370807F662309F442C0613009F081C0803B6C
S1130380B1F018F4803A31F00895803CE9F0803DF2
S113039041F108954AB321E030E0B90102C0660F8B
S11303A0771F9A95E2F7CB01842B8ABB089547B354
S11303B021E030E0B90102C0660F771F9A95E2F799
S11303C0CB01842B87BB089544B321E030E0B9010D
S11303D002C0660F771F9A95E2F7CB01842B84BB8A
S11303E0089541B321E030E0B90102C0660F771FE0
S11303F09A95E2F7CB01842B81BB0895803BB9F039
S113040018F4803A31F00895803CF9F0803D59F1B8
S113041008954AB321E030E0B90102C0660F771FA6
S11304209A95E2F7CB01809584238ABB089547B35C
S113043021E030E0B90102C0660F771F9A95E2F718
S1130440CB018095842387BB089544B321E030E039
S1130450B90102C0660F771F9A95E2F7CB01809528
S1130460842384BB089541B321E030E0B90102C084
S1130470660F771F9A95E2F7CB018095842381BBA1
S11304800895982F9F70807F662309F442C06130DD
S113049009F081C0803BB1F018F4803A31F008953E
S11304A0803CE9F0803D41F108954BB321E030E018
S11304B0B90102C0660F771F9A95E2F7CB01842B2E
S11304C08BBB089548B321E030E0B90102C0660F48
S11304D0771F9A95E2F7CB01842B88BB089545B327
S11304E021E030E0B90102C0660F771F9A95E2F768
S11304F0CB01842B85BB089542B321E030E0B901E0
S113050002C0660F771F9A95E2F7CB01842B82BB5A
S11305100895803BB9F018F4803A31F00895803C96
S1130520F9F0803D59F108954BB321E030E0B90171
S113053002C0660F771F9A95E2F7CB01809584235A
S11305408BBB089548B321E030E0B90102C0660FC7
S1130550771F9A95E2F7CB018095842388BB089591
S113056045B321E030E0B90102C0660F771F9A95C8
S1130570E2F7CB018095842385BB089542B321E043
S113058030E0B90102C0660F771F9A95E2F7CB01FC
S11305908095842382BB08958FB780688FBF0895A8
S11305A08DB180648DB98DB18F7D8DB98DB1877F0B
S11305B08DB98DB18B7F8DB98DB18F7E8DB960E092
S11305C085EB0E94B60161E086EB0E94B60160E013
S11305D084EB0E94B60160E087EB0E94B6018DB106
S11305E080688DB9089590936500809364000895A0
S11305F01F920F920FB60F9211242F933F934F9394
S11306005F936F937F938F939F93AF93BF93EF9376
S1130610FF938091640090916500892B31F0E09103
S11306206400F09165008FB10995FF91EF91BF913E
S1130630AF919F918F917F916F915F914F913F9176
S11306402F910F900FBE0F901F90189561E083EBD0
S11306500E94B60183B7806483BF83B7886083BF79
S113066083B7806283BF83B78F7E83BF83B7816084
S113067083BF83B78D7F83BF83B7846083BF0895AF
S1130680682F70E080E090E00E94350423E333E3B8
S113069043E250E40E9499040E9404046CBF08954C
S11306A01F920F920FB60F9211242F933F934F93E3
S11306B05F936F937F938F939F93AF93BF93EF93C6
S11306C0FF93E0916600F0916700309709F0099577
S11306D0FF91EF91BF91AF919F918F917F916F9116
S11306E05F914F913F912F910F900FBE0F901F90EC
S11306F018951F920F920FB60F9211242F933F93C8
S11307004F935F936F937F938F939F93AF93BF9315
S1130710EF93FF938091680090916900A0916A0023
S1130720B0916B000196A11DB11D80936800909358
S11307306900A0936A00B0936B000197A105B1050D
S113074081F4109268001092690010926A0010926D
S11307506B0014BCE0916C00F0916D00309709F0CF
S11307600995FF91EF91BF91AF919F918F917F91E7
S11307706F915F914F913F912F910F900FBE0F900A
S11307801F90189588E18AB986E080BD10BC87E681
S113079089B90895AC0120E030E005C05D9BFECF2F
S11307A09CB92F5F3F4FFA01E20FF31F9081911123
S11307B0F5CF08951F920F920FB60F9211242F9325
S11307C03F934F935F936F937F938F939F93AF93D5
S11307D0BF93EF93FF93E0916E00F0916F00309719
S11307E011F08CB10995FF91EF91BF91AF919F9159
S11307F08F917F916F915F914F913F912F910F90C6
S11308000FBE0F901F9018950E94780488F09F5790
S113081098F0B92F9927B751B0F0E1F0660F771F20
S1130820881F991F1AF0BA95C9F714C0B13091F016
S11308300E949204B1E008950C949204672F782FDB
S11308408827B85F39F0B93FCCF3869577956795DB
S1130850B395D9F73EF490958095709561957F4F47
S11308608F4F9F4F0895E89409C097FB3EF49095ED
S11308708095709561957F4F8F4F9F4F9923A9F075
S1130880F92F96E9BB279395F69587957795679504
S1130890B795F111F8CFFAF4BB0F11F460FF1BC048
S11308A06F5F7F4F8F4F9F4F16C0882311F096E9DB
S11308B011C0772321F09EE8872F762F05C0662389
S11308C071F096E8862F70E060E02AF09A95660F42
S11308D0771F881FDAF7880F9695879597F90895FB
S11308E057FD9058440F551F59F05F3F71F04795DD
S11308F0880F97FB991F61F09F3F79F087950895C2
S1130900121613061406551FF2CF4695F1DF08C0E0
S1130910161617061806991FF1CF869571056105FD
S113092008940895E894BB2766277727CB0197F9A5
S113093008950E94AC040C941D050E940F0538F024
S11309400E94160520F0952311F00C9406050C94D2
S11309500C0511240C9493040E94700470F3959F69
S1130960C1F3950F50E0551F629FF001729FBB27A2
S1130970F00DB11D639FAA27F00DB11DAA1F649F3E
S11309806627B00DA11D661F829F2227B00DA11DF1
S1130990621F739FB00DA11D621F839FA00D611D77
S11309A0221F749F3327A00D611D231F849F600D98
S11309B0211D822F762F6A2F11249F5750409AF0C1
S11309C0F1F088234AF0EE0FFF1FBB1F661F771F4D
S11309D0881F91505040A9F79E3F510580F00C9418
S11309E006050C9493045F3FE4F3983ED4F3869594
S11309F077956795B795F795E7959F5FC1F7FE2BB8
S1130A00880F911D9695879597F9089597F99F6793
S1130A1080E870E060E008959FEF80EC0895002482
S1130A200A941616170618060906089500240A944F
S1130A3012161306140605060895092E0394000CD5
S1130A4011F4882352F0BB0F40F4BF2B11F460FF64
S1130A5004C06F5F7F4F8F4F9F4F0895F894FFCF6F
S1070A600202020286
S9030000FC
