:100000000C942A000C9447000C9447000C94730144
:100010000C9447000C9447000C944A010C94470040
:100020000C9447000C9447000C941C010C94D501CF
:100030000C9447000C9447000C9447000C94470024
:100040000C9447000C9447000C9447000C94470014
:100050000C94470011241FBECFE5D4E0DEBFCDBF16
:1000600010E0A0E6B0E0E2E0F4E002C005900D92FE
:10007000A636B107D9F720E0A6E6B0E001C01D9290
:10008000A237B207E1F70E9452000C94FF010C94D2
:10009000000080E690E00E94C5019BB381E08927C3
:1000A0008BBB08950E94F00061E080EA0E94650029
:1000B0000E94F40089E490E00E9417010E94BC01B4
:1000C00082E690E00E94C501FFCF982F9F70807F4D
:1000D000662309F442C0613009F081C0803BB1F071
:1000E00018F4803A31F00895803CE9F0803D41F108
:1000F00008954AB321E030E0B90102C0660F771FCE
:100100009A95E2F7CB01842B8ABB089547B321E08F
:1001100030E0B90102C0660F771F9A95E2F7CB0174
:10012000842B87BB089544B321E030E0B90102C0BD
:10013000660F771F9A95E2F7CB01842B84BB089555
:1001400041B321E030E0B90102C0660F771F9A95F4
:10015000E2F7CB01842B81BB0895803BB9F018F402
:10016000803A31F00895803CF9F0803D59F10895CE
:100170004AB321E030E0B90102C0660F771F9A95BB
:10018000E2F7CB01809584238ABB089547B321E031
:1001900030E0B90102C0660F771F9A95E2F7CB01F4
:1001A0008095842387BB089544B321E030E0B901F2
:1001B00002C0660F771F9A95E2F7CB0180958423E2
:1001C00084BB089541B321E030E0B90102C0660F5D
:1001D000771F9A95E2F7CB018095842381BB089520
:1001E0008FB780688FBF08958DB180648DB98DB150
:1001F0008F7D8DB98DB1877F8DB98DB18B7F8DB995
:100200008DB18F7E8DB960E085EB0E94650061E065
:1002100086EB0E94650060E084EB0E94650060E070
:1002200087EB0E9465008DB180688DB90895909329
:1002300067008093660008951F920F920FB60F9289
:1002400011242F933F934F935F936F937F938F93DB
:100250009F93AF93BF93EF93FF938091660090912C
:100260006700892B31F0E0916600F09167008FB153
:100270000995FF91EF91BF91AF919F918F917F91E0
:100280006F915F914F913F912F910F900FBE0F9003
:100290001F9018951F920F920FB60F9211242F9353
:1002A0003F934F935F936F937F938F939F93AF93FE
:1002B000BF93EF93FF93E0916800F091690030974E
:1002C00009F00995FF91EF91BF91AF919F918F91A7
:1002D0007F916F915F914F913F912F910F900FBE42
:1002E0000F901F9018951F920F920FB60F92112426
:1002F0002F933F934F935F936F937F938F939F932E
:10030000AF93BF93EF93FF9380916A0090916B003E
:10031000A0916C00B0916D000196A11DB11D80935C
:100320006A0090936B00A0936C00B0936D000197EE
:10033000A105B10581F410926A0010926B00109231
:100340006C0010926D0014BCE0916E00F0916F0093
:10035000309709F00995FF91EF91BF91AF919F916F
:100360008F917F916F915F914F913F912F910F905E
:100370000FBE0F901F90189583E080BD80E489B96F
:1003800088E18AB986E080BD0895AC0120E030E0C4
:1003900005C05D9BFECF9CB92F5F3F4FFA01E20F76
:1003A000F31F90819111F5CF08951F920F920FB610
:1003B0000F9211242F933F934F935F936F937F93EB
:1003C0008F939F93AF93BF93EF93FF93E091700050
:1003D000F0917100309711F08CB10995FF91EF9178
:1003E000BF91AF919F918F917F916F915F914F914D
:1003F0003F912F910F900FBE0F901F901895F8947A
:02040000FFCF2C
:0604020041004849000022
:00000001FF
