S0110000736C6176655F6361722E7372656363
S11300000C942A000C9447000C9447000C9447006D
S11300100C9447000C9447000C94A6030C944700DE
S11300200C9447000C9447000C943E030C94CF03AB
S11300300C9447000C9447000C9447000C94470020
S11300400C9447000C9447000C9447000C94470010
S11300500C94470011241FBECFE5D4E0DEBFCDBF12
S113006010E0A0E6B0E0EAE4FAE002C005900D92E8
S1130070A636B107D9F720E0A6E6B0E001C01D928C
S1130080A737B207E1F70E9443010C9423050C94AF
S1130090000080916100813009F440C020F082307A
S11300A009F477C0089580916000813021F0A0F0B8
S11300B0823019F1089560E080EC0E94870260E0CC
S11300C081EC0E94870260E084ED0E94870261E077
S11300D085ED0E948702089560E080EC0E9487020B
S11300E061E081EC0E94870260E084ED0E94870257
S11300F060E085ED0E948702089560E080EC0E9434
S1130100870261E081EC0E94870260E084ED0E9436
S1130110870261E085ED0E94870208958091600066
S11301208130A9F018F0823019F1089560E080EC74
S11301300E94870260E081EC0E94870261E084ED06
S11301400E94870260E085ED0E948702089561E0C5
S113015080EC0E94870260E081EC0E94870260E0EC
S113016084ED0E94870260E085ED0E948702089575
S113017061E080EC0E94870260E081EC0E948702CB
S113018061E084ED0E94870260E085ED0E948702B1
S1130190089560E080EC0E94870260E081EC0E9498
S11301A0870260E084ED0E94870260E085ED0E9492
S11301B08702089561E080EC0E94FC0161E081EC1B
S11301C00E94FC0161E084ED0E94FC0161E085ED88
S11301D00E94FC0160E080EC0E94870260E081ECF8
S11301E00E94870260E084ED0E94870260E085ED52
S11301F00E94870208950E948603089580936100F7
S11302000E9449000895809360000E944900089567
S1130210863411F0863619F41092640008958234FD
S113022011F0823621F481E08093640008958335CF
S113023011F0833721F482E08093640008958235BD
S113024011F0823719F41092620008958C3411F081
S11302508C3621F481E08093620008958E3411F08D
S11302608E3619F482E080936200089580916400D0
S1130270823019F4809363000895809166008F5F43
S113028080936600089580E090E0DC0108C0FC01E2
S1130290E359FF4F22E020830196A11DB11D8A304E
S11302A09105A105B10598F30E9412030E946C0305
S11302B00E9496030E9416030E94DA008EE10E94B7
S11302C0FB00809164000E94FE00809163000E9404
S11302D0030186E391E00E94A10388E091E00E947B
S11302E0390361E080EA0E94FC0161E081EA0E9436
S11302F0FC0161E082EA0E94FC0161E083EA0E9461
S1130300FC0161E080EA0E94870261E081EA0E94C8
S1130310870261E082EA0E94870261E083EA0E9428
S113032087022FEF83ED90E3215080409040E1F766
S113033000C00000809164000E94FE008091630070
S11303400E94030161E080916400811160E080EA11
S11303500E94870261E080916400813009F060E0CE
S113036081EA0E94870280916300811106C0809116
S11303706400823021F460E003C060E001C061E009
S113038082EA0E94870280916300813031F4809177
S11303906400823021F460E003C060E001C061E0E9
S11303A083EA0E94870220916600222319F2809139
S11303B076008093630089E090E0A0E0B0E010C094
S11303C0AC01BD014150510961097109FA01E359B8
S11303D0FF4F3081FC01E359FF4F3083DB01CA0139
S11303E00097A105B10561F78091620080936D00CB
S11303F02150209366009ECF982F9F70807F6623A4
S113040009F442C0613009F081C0803BB1F018F4B6
S1130410803A31F00895803CE9F0803D41F108953F
S11304204AB321E030E0B90102C0660F771F9A9504
S1130430E2F7CB01842B8ABB089547B321E030E077
S1130440B90102C0660F771F9A95E2F7CB01842B9E
S113045087BB089544B321E030E0B90102C0660FC0
S1130460771F9A95E2F7CB01842B84BB089541B39F
S113047021E030E0B90102C0660F771F9A95E2F7D8
S1130480CB01842B81BB0895803BB9F018F4803AEA
S113049031F00895803CF9F0803D59F108954AB354
S11304A021E030E0B90102C0660F771F9A95E2F7A8
S11304B0CB01809584238ABB089547B321E030E0C3
S11304C0B90102C0660F771F9A95E2F7CB018095B8
S11304D0842387BB089544B321E030E0B90102C00E
S11304E0660F771F9A95E2F7CB018095842384BB2E
S11304F0089541B321E030E0B90102C0660F771FCF
S11305009A95E2F7CB018095842381BB0895982FB7
S11305109F70807F662309F442C0613009F081C076
S1130520803BB1F018F4803A31F00895803CE9F052
S1130530803D41F108954BB321E030E0B90102C0A0
S1130540660F771F9A95E2F7CB01842B8BBB089536
S113055048B321E030E0B90102C0660F771F9A95D5
S1130560E2F7CB01842B88BB089545B321E030E04A
S1130570B90102C0660F771F9A95E2F7CB01842B6D
S113058085BB089542B321E030E0B90102C0660F93
S1130590771F9A95E2F7CB01842B82BB0895803BA9
S11305A0B9F018F4803A31F00895803CF9F0803DB8
S11305B059F108954BB321E030E0B90102C0660F50
S11305C0771F9A95E2F7CB01809584238BBB08951E
S11305D048B321E030E0B90102C0660F771F9A9555
S11305E0E2F7CB018095842388BB089545B321E0CD
S11305F030E0B90102C0660F771F9A95E2F7CB018C
S11306008095842385BB089542B321E030E0B9018D
S113061002C0660F771F9A95E2F7CB018095842379
S113062082BB08958FB780688FBF08958DB18064B1
S11306308DB98DB18F7D8DB98DB1877F8DB98DB118
S11306408B7F8DB98DB18F7E8DB960E085EB0E9473
S1130650FC0161E086EB0E94FC0160E084EB0E94F7
S1130660FC0160E087EB0E94FC018DB180688DB9CC
S11306700895909368008093670008951F920F92E5
S11306800FB60F9211242F933F934F935F936F9361
S11306907F938F939F93AF93BF93EF93FF93809137
S11306A0670090916800892B31F0E0916700F09128
S11306B068008FB10995FF91EF91BF91AF919F9120
S11306C08F917F916F915F914F913F912F910F90F7
S11306D00FBE0F901F90189561E083EB0E94FC0100
S11306E083B7806483BF83B7886083BF83B7806226
S11306F083BF83B78F7E83BF83B7816083BF83B794
S11307008D7F83BF83B7846083BF0895682F70E0B3
S113071080E090E00E942A0423E333E343E250E4C0
S11307200E948E040E94F9036CBF08951FBC8CE0E4
S11307308EBD85E39CE09BBD8ABD89B7806189BF7E
S1130740089590936A008093690008951F920F9210
S11307500FB60F9211242F933F934F935F936F9390
S11307607F938F939F93AF93BF93EF93FF93E09106
S11307706900F0916A00309709F00995FF91EF91B3
S1130780BF91AF919F918F917F916F915F914F91A5
S11307903F912F910F900FBE0F901F9018951F92AD
S11307A00F920FB60F9211242F933F934F935F93A1
S11307B06F937F938F939F93AF93BF93EF93FF9325
S11307C0E0916B00F0916C00309711F08CB10995B9
S11307D0FF91EF91BF91AF919F918F917F916F9115
S11307E05F914F913F912F910F900FBE0F901F90EB
S11307F018950E946D0488F09F5798F0B92F992797
S1130800B751B0F0E1F0660F771F881F991F1AF0F7
S1130810BA95C9F714C0B13091F00E948704B1E0D1
S113082008950C948704672F782F8827B85F39F0D0
S1130830B93FCCF3869577956795B395D9F73EF490
S113084090958095709561957F4F8F4F9F4F089538
S1130850E89409C097FB3EF4909580957095619556
S11308607F4F8F4F9F4F9923A9F0F92F96E9BB270C
S11308709395F695879577956795B795F111F8CF88
S1130880FAF4BB0F11F460FF1BC06F5F7F4F8F4FF3
S11308909F4F16C0882311F096E911C0772321F0E9
S11308A09EE8872F762F05C0662371F096E8862F81
S11308B070E060E02AF09A95660F771F881FDAF7D8
S11308C0880F9695879597F9089557FD9058440F8A
S11308D0551F59F05F3F71F04795880F97FB991F9B
S11308E061F09F3F79F08795089512161306140658
S11308F0551FF2CF4695F1DF08C0161617061806E5
S1130900991FF1CF86957105610508940895E894BF
S1130910BB2766277727CB0197F908950E94A10486
S11309200C9412050E94040538F00E940B0520F077
S1130930952311F00C94FB040C94010511240C94E0
S113094088040E94650470F3959FC1F3950F50E0ED
S1130950551F629FF001729FBB27F00DB11D639F6D
S1130960AA27F00DB11DAA1F649F6627B00DA11D13
S1130970661F829F2227B00DA11D621F739FB00DB9
S1130980A11D621F839FA00D611D221F749F332729
S1130990A00D611D231F849F600D211D822F762FC2
S11309A06A2F11249F5750409AF0F1F088234AF09F
S11309B0EE0FFF1FBB1F661F771F881F915050400B
S11309C0A9F79E3F510580F00C94FB040C94880415
S11309D05F3FE4F3983ED4F3869577956795B79592
S11309E0F795E7959F5FC1F7FE2B880F911D9695AC
S11309F0879597F9089597F99F6780E870E060E01C
S1130A0008959FEF80EC089500240A9416161706A3
S1130A1018060906089500240A94121613061406EB
S1130A2005060895092E0394000C11F4882352F04E
S1130A30BB0F40F4BF2B11F460FF04C06F5F7F4F06
S10D0A408F4F9F4F0895F894FFCFE5
S1090A4A02020202020098
S9030000FC
