:100000000C942A000C9447000C9447000C94470071
:100010000C9447000C9447000C9457020C94470032
:100020000C9447000C9447000C9447000C949002E9
:100030000C9447000C9447000C9447000C94470024
:100040000C9447000C9447000C9447000C94470014
:100050000C94470011241FBECFE5D4E0DEBFCDBF16
:1000600010E0A0E6B0E0ECECF7E002C005900D92E5
:10007000A236B107D9F720E0A2E6B0E001C01D9298
:10008000A736B207E1F70E9422010C94E4030C9416
:10009000000080916100813009F440C020F082307E
:1000A00009F477C0089580916000813021F0A0F0BC
:1000B000823019F1089561E084EC0E942D0160E026
:1000C00085EC0E942D0160E086EC0E942D0160E02D
:1000D00087EC0E942D01089560E084EC0E942D01C0
:1000E00060E085EC0E942D0161E086EC0E942D010C
:1000F00060E087EC0E942D01089561E084EC0E948D
:100100002D0160E085EC0E942D0161E086EC0E94EB
:100110002D0160E087EC0E942D0108958091600020
:100120008130A9F018F0823019F1089560E084EC74
:100130000E942D0160E085EC0E942D0160E086ECBC
:100140000E942D0161E087EC0E942D01089560E07E
:1001500084EC0E942D0161E085EC0E942D0160E09D
:1001600086EC0E942D0160E087EC0E942D0108952D
:1001700060E084EC0E942D0161E085EC0E942D017D
:1001800060E086EC0E942D0161E087EC0E942D0169
:10019000089560E084EC0E942D0160E085EC0E94EF
:1001A0002D0160E086EC0E942D0160E087EC0E944A
:1001B0002D01089561E084EC0E942D0161E085EC41
:1001C0000E942D0161E086EC0E942D0161E087EC28
:1001D0000E942D0160E084EC0E94B80160E085EC93
:1001E0000E94B80160E086EC0E94B80160E087ECF4
:1001F0000E94B80108950E9447020895809361000B
:100200000E9449000895809360000E94490008956B
:100210008EE10E94FB0080916200882339F080E02B
:100220000E94FE0082E00E94030106C081E00E945D
:10023000FE0082E00E94030180916200809580931D
:10024000620008950E9443020E94DA000E94800228
:1002500088E091E00E948802FFCF982F9F70807FF6
:10026000662309F442C0613009F081C0803BB1F0DF
:1002700018F4803A31F00895803CE9F0803D41F176
:1002800008954AB321E030E0B90102C0660F771F3C
:100290009A95E2F7CB01842B8ABB089547B321E0FE
:1002A00030E0B90102C0660F771F9A95E2F7CB01E3
:1002B000842B87BB089544B321E030E0B90102C02C
:1002C000660F771F9A95E2F7CB01842B84BB0895C4
:1002D00041B321E030E0B90102C0660F771F9A9563
:1002E000E2F7CB01842B81BB0895803BB9F018F471
:1002F000803A31F00895803CF9F0803D59F108953D
:100300004AB321E030E0B90102C0660F771F9A9529
:10031000E2F7CB01809584238ABB089547B321E09F
:1003200030E0B90102C0660F771F9A95E2F7CB0162
:100330008095842387BB089544B321E030E0B90160
:1003400002C0660F771F9A95E2F7CB018095842350
:1003500084BB089541B321E030E0B90102C0660FCB
:10036000771F9A95E2F7CB018095842381BB08958E
:10037000982F9F70807F662309F442C0613009F096
:1003800081C0803BB1F018F4803A31F00895803C90
:10039000E9F0803D41F108954BB321E030E0B9012F
:1003A00002C0660F771F9A95E2F7CB01842B8BBBB7
:1003B000089548B321E030E0B90102C0660F771F0D
:1003C0009A95E2F7CB01842B88BB089545B321E0D1
:1003D00030E0B90102C0660F771F9A95E2F7CB01B2
:1003E000842B85BB089542B321E030E0B90102C0FF
:1003F000660F771F9A95E2F7CB01842B82BB089595
:10040000803BB9F018F4803A31F00895803CF9F05F
:10041000803D59F108954BB321E030E0B90102C0AD
:10042000660F771F9A95E2F7CB01809584238BBBEB
:10043000089548B321E030E0B90102C0660F771F8C
:100440009A95E2F7CB018095842388BB089545B344
:1004500021E030E0B90102C0660F771F9A95E2F7FC
:10046000CB018095842385BB089542B321E030E021
:10047000B90102C0660F771F9A95E2F7CB0180950C
:10048000842382BB08958FB780688FBF0895682F3B
:1004900070E080E090E00E94EB0223E333E343E26C
:1004A00050E40E944F030E94BA026CBF08951F924D
:1004B0000F920FB60F9211242F933F934F935F9398
:1004C0006F937F938F939F93AF93BF93EF93FF931C
:1004D000E0916300F0916400309709F00995FF9175
:1004E000EF91BF91AF919F918F917F916F915F91AC
:1004F0004F913F912F910F900FBE0F901F90189525
:1005000010BC87E689B988E18AB986E080BD089584
:1005100090936600809365008AB180688AB90895D7
:100520001F920F920FB60F9211242F933F934F9368
:100530005F936F937F938F939F93AF93BF93EF934B
:10054000FF93E0916500F0916600309711F08CB157
:100550000995FF91EF91BF91AF919F918F917F91FD
:100560006F915F914F913F912F910F900FBE0F9020
:100570001F9018950E942E0388F09F5798F0B92F6E
:100580009927B751B0F0E1F0660F771F881F991FC8
:100590001AF0BA95C9F714C0B13091F00E9448031F
:1005A000B1E008950C944803672F782F8827B85F2F
:1005B00039F0B93FCCF3869577956795B395D9F720
:1005C0003EF490958095709561957F4F8F4F9F4F2A
:1005D0000895E89409C097FB3EF490958095709536
:1005E00061957F4F8F4F9F4F9923A9F0F92F96E97F
:1005F000BB279395F695879577956795B795F111F4
:10060000F8CFFAF4BB0F11F460FF1BC06F5F7F4F90
:100610008F4F9F4F16C0882311F096E911C07723A2
:1006200021F09EE8872F762F05C0662371F096E8AB
:10063000862F70E060E02AF09A95660F771F881F7A
:10064000DAF7880F9695879597F9089557FD905892
:10065000440F551F59F05F3F71F04795880F97FB86
:10066000991F61F09F3F79F0879508951216130640
:100670001406551FF2CF4695F1DF08C0161617066F
:100680001806991FF1CF86957105610508940895A4
:10069000E894BB2766277727CB0197F908950E9436
:1006A00062030C94D3030E94C50338F00E94CC036C
:1006B00020F0952311F00C94BC030C94C203112478
:1006C0000C9449030E94260370F3959FC1F3950F84
:1006D00050E0551F629FF001729FBB27F00DB11DC6
:1006E000639FAA27F00DB11DAA1F649F6627B00D56
:1006F000A11D661F829F2227B00DA11D621F739F3F
:10070000B00DA11D621F839FA00D611D221F749F4C
:100710003327A00D611D231F849F600D211D822F93
:10072000762F6A2F11249F5750409AF0F1F08823BA
:100730004AF0EE0FFF1FBB1F661F771F881F9150E7
:100740005040A9F79E3F510580F00C94BC030C94D7
:1007500049035F3FE4F3983ED4F386957795679518
:10076000B795F795E7959F5FC1F7FE2B880F911D11
:100770009695879597F9089597F99F6780E870E0B7
:1007800060E008959FEF80EC089500240A94161607
:10079000170618060906089500240A94121613066F
:1007A000140605060895092E0394000C11F48823FD
:1007B00052F0BB0F40F4BF2B11F460FF04C06F5F19
:0C07C0007F4F8F4F9F4F0895F894FFCF9C
:0207CC00020227
:00000001FF
