S0110000736C6176655F6361722E7372656363
S11300000C942A000C9447000C9447000C9447006D
S11300100C9447000C9447000C9425030C9447005F
S11300200C9447000C9447000C9447000C945F0315
S11300300C9447000C9447000C9447000C94470020
S11300400C9447000C9447000C9447000C94470010
S11300500C94470011241FBECFE5D4E0DEBFCDBF12
S113006010E0A0E6B0E0EAE6F9E002C005900D92E7
S1130070A636B107D9F720E0A6E6B0E001C01D928C
S1130080A438B207E1F70E9441010C94B3040C9424
S1130090000080916100813009F440C020F082307A
S11300A009F477C0089580916000813021F0A0F0B8
S11300B0823019F1089561E084EC0E94D10160E07E
S11300C085EC0E94D10160E086EC0E94D10160E0E1
S11300D087EC0E94D101089560E084EC0E94D10174
S11300E060E085EC0E94D10161E086EC0E94D101C0
S11300F060E087EC0E94D101089561E084EC0E94E5
S1130100D10160E085EC0E94D10161E086EC0E949F
S1130110D10160E087EC0E94D101089580916000D4
S11301208130A9F018F0823019F1089560E084EC70
S11301300E94D10160E085EC0E94D10160E086EC70
S11301400E94D10161E087EC0E94D101089560E032
S113015084EC0E94D10161E085EC0E94D10160E051
S113016086EC0E94D10160E087EC0E94D1010895E1
S113017060E084EC0E94D10161E085EC0E94D10131
S113018060E086EC0E94D10161E087EC0E94D1011D
S1130190089560E084EC0E94D10160E085EC0E9447
S11301A0D10160E086EC0E94D10160E087EC0E94FE
S11301B0D101089561E084EC0E94D10161E085ECF5
S11301C00E94D10161E086EC0E94D10161E087ECDC
S11301D00E94D10160E084EC0E945C0260E085EC46
S11301E00E945C0260E086EC0E945C0260E087ECA6
S11301F00E945C0208950E940503089580936100A3
S11302000E9449000895809360000E944900089567
S1130210863411F0863619F41092640008958234FD
S113022011F0823621F481E08093640008958335CF
S113023011F0833721F482E08093640008958235BD
S113024011F0823719F41092620008958C3411F081
S11302508C3621F481E08093620008958E3411F08D
S11302608E3619F482E080936200089580916400D0
S1130270823019F480936300089581E080936600CE
S1130280089580E090E0DC0108C0FC01E559FF4FCF
S113029022E020830196A11DB11D89319105A1059C
S11302A0B10598F361E080EA0E94D10161E081EA3E
S11302B00E94D10161E082EA0E94D10161E083EAF7
S11302C00E94D1010E94E7020E94EB020E941503E2
S11302D00E944E030E94DA008EE10E94FB0080918E
S11302E064000E94FE00809163000E94030186E383
S11302F091E00E94200388E091E00E9457038091DE
S113030064000E94FE00809163000E94030161E08A
S113031080916400811160E080EA0E945C0261E0E7
S113032080916400813009F060E081EA0E945C02FF
S113033061E080916300811160E082EA0E945C02C6
S113034061E080916300813009F060E083EA0E94FB
S11303505C0280916600813091F6809183008093E5
S1130360630088E190E0A0E0B0E010C0AC01BD0102
S11303704150510961097109FA01E559FF4F208182
S1130380FC01E559FF4F2083DB01CA010097A10559
S1130390B10561F78091620080936B001092660052
S11303A0AECF982F9F70807F662309F442C06130DE
S11303B009F081C0803BB1F018F4803A31F008951F
S11303C0803CE9F0803D41F108954AB321E030E0FA
S11303D0B90102C0660F771F9A95E2F7CB01842B0F
S11303E08ABB089547B321E030E0B90102C0660F2B
S11303F0771F9A95E2F7CB01842B87BB089544B30A
S113040021E030E0B90102C0660F771F9A95E2F748
S1130410CB01842B84BB089541B321E030E0B901C2
S113042002C0660F771F9A95E2F7CB01842B81BB3C
S11304300895803BB9F018F4803A31F00895803C77
S1130440F9F0803D59F108954AB321E030E0B90153
S113045002C0660F771F9A95E2F7CB01809584233B
S11304608ABB089547B321E030E0B90102C0660FAA
S1130470771F9A95E2F7CB018095842387BB089573
S113048044B321E030E0B90102C0660F771F9A95AA
S1130490E2F7CB018095842384BB089541B321E026
S11304A030E0B90102C0660F771F9A95E2F7CB01DD
S11304B08095842381BB0895982F9F70807F662345
S11304C009F442C0613009F081C0803BB1F018F4F6
S11304D0803A31F00895803CE9F0803D41F108957F
S11304E04BB321E030E0B90102C0660F771F9A9543
S11304F0E2F7CB01842B8BBB089548B321E030E0B5
S1130500B90102C0660F771F9A95E2F7CB01842BDD
S113051088BB089545B321E030E0B90102C0660FFD
S1130520771F9A95E2F7CB01842B85BB089542B3DC
S113053021E030E0B90102C0660F771F9A95E2F717
S1130540CB01842B82BB0895803BB9F018F4803A28
S113055031F00895803CF9F0803D59F108954BB392
S113056021E030E0B90102C0660F771F9A95E2F7E7
S1130570CB01809584238BBB089548B321E030E000
S1130580B90102C0660F771F9A95E2F7CB018095F7
S1130590842388BB089545B321E030E0B90102C04B
S11305A0660F771F9A95E2F7CB018095842385BB6C
S11305B0089542B321E030E0B90102C0660F771F0D
S11305C09A95E2F7CB018095842382BB08958FB777
S11305D080688FBF089561E083EB0E94D10183B7E7
S11305E0806483BF83B7886083BF83B7806283BF1F
S11305F083B78F7E83BF83B7816083BF83B78D7FCB
S113060083BF83B7846083BF0895682F70E080E060
S113061090E00E94BA0323E333E343E250E40E94F0
S11306201E040E9489036CBF08951FBC8CE08EBD1C
S113063085E39CE09BBD8ABD89B7806189BF08952D
S1130640909368008093670008951F920F920FB6ED
S11306500F9211242F933F934F935F936F937F9344
S11306608F939F93AF93BF93EF93FF93E0916700B2
S1130670F0916800309709F00995FF91EF91BF91CF
S1130680AF919F918F917F916F915F914F913F9126
S11306902F910F900FBE0F901F90189583E080BD8F
S11306A080E489B988E18AB986E080BD0895909391
S11306B06A00809369008AB180688AB908951F929C
S11306C00F920FB60F9211242F933F934F935F9382
S11306D06F937F938F939F93AF93BF93EF93FF9306
S11306E0E0916900F0916A00309711F08CB109959E
S11306F0FF91EF91BF91AF919F918F917F916F91F6
S11307005F914F913F912F910F900FBE0F901F90CB
S113071018950E94FD0388F09F5798F0B92F9927E8
S1130720B751B0F0E1F0660F771F881F991F1AF0D8
S1130730BA95C9F714C0B13091F00E941704B1E022
S113074008950C941704672F782F8827B85F39F021
S1130750B93FCCF3869577956795B395D9F73EF471
S113076090958095709561957F4F8F4F9F4F089519
S1130770E89409C097FB3EF4909580957095619537
S11307807F4F8F4F9F4F9923A9F0F92F96E9BB27ED
S11307909395F695879577956795B795F111F8CF69
S11307A0FAF4BB0F11F460FF1BC06F5F7F4F8F4FD4
S11307B09F4F16C0882311F096E911C0772321F0CA
S11307C09EE8872F762F05C0662371F096E8862F62
S11307D070E060E02AF09A95660F771F881FDAF7B9
S11307E0880F9695879597F9089557FD9058440F6B
S11307F0551F59F05F3F71F04795880F97FB991F7C
S113080061F09F3F79F08795089512161306140638
S1130810551FF2CF4695F1DF08C0161617061806C5
S1130820991FF1CF86957105610508940895E894A0
S1130830BB2766277727CB0197F908950E943104D7
S11308400C94A2040E94940438F00E949B0420F0AB
S1130850952311F00C948B040C94910411240C94A2
S113086018040E94F50370F3959FC1F3950F50E0AF
S1130870551F629FF001729FBB27F00DB11D639F4E
S1130880AA27F00DB11DAA1F649F6627B00DA11DF4
S1130890661F829F2227B00DA11D621F739FB00D9A
S11308A0A11D621F839FA00D611D221F749F33270A
S11308B0A00D611D231F849F600D211D822F762FA3
S11308C06A2F11249F5750409AF0F1F088234AF080
S11308D0EE0FFF1FBB1F661F771F881F91505040EC
S11308E0A9F79E3F510580F00C948B040C941804D6
S11308F05F3FE4F3983ED4F3869577956795B79573
S1130900F795E7959F5FC1F7FE2B880F911D96958C
S1130910879597F9089597F99F6780E870E060E0FC
S113092008959FEF80EC089500240A941616170684
S113093018060906089500240A94121613061406CC
S113094005060895092E0394000C11F4882352F02F
S1130950BB0F40F4BF2B11F460FF04C06F5F7F4FE7
S10D09608F4F9F4F0895F894FFCFC6
S109096A02020202020079
S9030000FC
