:100000000C942A000C9447000C9447000C94470071
:100010000C9447000C9447000C9447000C94470044
:100020000C9447000C9447000C9447000C94470034
:100030000C9447000C947A010C9447000C944700F0
:100040000C9447000C9447000C9447000C94470014
:100050000C94470011241FBECFE5D8E0DEBFCDBF12
:1000600010E0A0E6B0E0ECE4F3E002C005900D92F1
:10007000A637B107D9F720E0A6E7B0E001C01D928E
:10008000A837B207E1F70E941F010C94A4010C9459
:10009000000098B39B7F98BB98B39D7F98BB9BB3A0
:1000A0009F70282F207F922B9BBB98B3986098BBA2
:1000B000EFE3FFE13197F1F700C0000098B3977FBD
:1000C00098BBEFE3FFE13197F1F700C000002BB3DD
:1000D000F0E18F9FC0011124922F9F70892B8BBB61
:1000E00088B3886088BB8FE39FE10197F1F700C078
:1000F000000088B3877F88BB9FEFE9EFF0E0915065
:10010000E040F040E1F700C00000089587B384604C
:1001100087BB87B3826087BB87B3886087BB8AB39E
:10012000806F8ABB2FEF89EF90E021508040904094
:10013000E1F700C0000082E00E94490088E20E94CE
:1001400049008FE00E94490086E00E94490081E05A
:100150000E9449002FEF89EF90E0215080409040AD
:10016000E1F700C00000089598B39B7F98BB98B357
:10017000926098BB9BB39F70282F207F922B9BBBD4
:1001800098B3986098BBEFE3FFE13197F1F700C0B7
:10019000000098B3977F98BBEFE3FFE13197F1F749
:1001A00000C000002BB3F0E18F9FC0011124922FFB
:1001B0009F70892B8BBB88B3886088BB8FE39FE1DE
:1001C0000197F1F700C0000088B3877F88BB9FEFDD
:1001D000E9EFF0E09150E040F040E1F700C00000AE
:1001E0000895CF93DF93EC0103C00E94B4002196E1
:1001F00088818111FACFDF91CF910895882319F07A
:10020000813021F007C0862F806805C080E4860F0A
:10021000806801C080E80E944900089581E00E9442
:1002200049000895CF93C82F60E080E00E94FE004F
:100230000E940E018C2F0E94B400CF9108957894F3
:100240000E945A010E94860087B38E7F87BB84B3C9
:10025000846084BB81B3886081BB85B3846085BBC7
:1002600080E690E00E94F1008CE690E00E9462013E
:100270002FEF87EA91E6215080409040E1F700C0DF
:1002800000000E940E0160E080E00E94FE0082E11A
:1002900091E00E947201B09B09C00E940E0160E0D3
:1002A00080E00E94FE0085B3846085BB85B38B7FB0
:1002B00085BBF1CF88E18AB986E080BD10BC87E6B6
:1002C00089B90895AC0120E030E005C05D9BFECF08
:1002D0009CB92F5F3F4FFA01E20FF31F90819111FC
:1002E000F5CF089590937700809376008AB1806867
:1002F0008AB908951F920F920FB60F9211242F936F
:100300003F934F935F936F937F938F939F93AF939D
:10031000BF93EF93FF93E0917600F09177003097D1
:1003200011F08CB10995FF91EF91BF91AF919F9121
:100330008F917F916F915F914F913F912F910F908E
:0C0340000FBE0F901F901895F894FFCF8F
:10034C0055415254205445535445520053656E64E4
:06035C00205465737400DB
:00000001FF
